:020000040000FA
:10000000000002285130AE000130AF008030000007
:100010000000DD200000000083120000BD002F085A
:10002000BC005330BE000130BF00831200003C080A
:10003000C0003D08C100FF30BC07031CBD034108E0
:10004000400403199A2804303E07C000C101C10DC5
:100050003F08C1074008AE004108AF0080300000F3
:100060000000DD200000000083120000C3002F0804
:10007000C2003E08AE003F08AF0080300000000024
:10008000DD200000000083120000C500C1002F0821
:10009000C000C40002303E07C000C101C10D3F08CE
:1000A000C1074008AE004108AF00803000000000EA
:1000B000DD200000000083120000C100C7002F08EF
:1000C000C600C000831200004208C6004308C700F3
:1000D000FF30C207031CC3034708460403199328D3
:1000E0004408AE004508AF00803000000000FE204C
:1000F0000000000083120000C600400883120313B2
:10010000840083138312000041188317460883126A
:100110000313800083120000C40A0319C50AC00A31
:100120000319C10A6228063083120000BE070318B3
:10013000BF0A1528000000009E2808001030831612
:100140008500831285018312051AA3283821B00087
:100150008312850101303002031CD528073030029C
:100160000318D528B00300308A00BA3030070318CE
:100170008A0A8200C028C328C628C928CD28D128C9
:1001800083120514D52883128514D52883120515EA
:10019000D528831205140515D52883128514051555
:1001A000D52883120514851405159030AF00013051
:1001B000112183128501A3280800003A0319E528BC
:1001C000803A0319EF28AF0100342E08840083130E
:1001D0002F1883170008AF00840A000808000000E9
:1001E00000000C21AD00AE0FAF03AF0A000000000D
:1001F0000C21AC002D08AF002C080800003A0319B0
:100200000529803A03190C2900342E088400831331
:100210002F188317000808002F088A002E08820074
:100220000800B2002F08B100B301B4013208340253
:10023000031D1C2931083302031837297830B50013
:100240000530B600FF303507B700FF30B80036087C
:100250000318360FB8073708B5003808B600380855
:100260003704031D2229B30A0319B40A162908000A
:100270004808B9000310480CBA00B9060130B905A6
:100280003908BB0003103B0DB9000310B90D390844
:10029000BB003A04C8000730480203183829480850
:1002A0000800023400345F3401344834003401342F
:1002B00000346034013449340034013400340734EC
:0202C000003408
:00000001FF
